:020000040800F2
:1000000000500020611A0008B9150008BB1500084F
:10001000BD150008BF150008C1150008000000004C
:10002000000000000000000000000000C3150008F0
:10003000C515000800000000C7150008C915000814
:10004000A91A0008A91A0008A91A0008A91A000884
:10005000A91A0008A91A0008A91A0008A91A000874
:10006000A91A0008A91A0008A91A0008A91A000864
:10007000A91A0008A91A0008D1150008E1150008FE
:10008000A91A0008A91A0008A91A0008A91A000844
:10009000A91A0008A91A0008A91A0008A91A000834
:1000A000A91A0008F1150008A91A0008A91A0008E1
:1000B0000116000811160008A91A0008A91A00085C
:1000C000A91A0008A91A0008A91A0008A91A000804
:1000D000A91A000821160008A91A0008A91A000880
:1000E000A91A0008A91A0008A91A000800000000AF
:1000F0000000000000000000000000000000000000
:0C01000000000000000000005FF808F1A3
:1001100010B5054C237833B9044B13B10448AFF341
:1001200000800123237010BD3C040020000000006B
:10013000A03A000808B5034B1BB103490348AFF3CD
:10014000008008BD0000000040040020A03A000824
:1001500081F0004102E000BF83F0004330B54FEA78
:1001600041044FEA430594EA050F08BF90EA020FE5
:100170001FBF54EA000C55EA020C7FEA645C7FEA78
:10018000655C00F0E2804FEA5454D4EB5555B8BF9B
:100190006D420CDD2C4480EA020281EA030382EA0C
:1001A000000083EA010180EA020281EA0303362D9E
:1001B00088BF30BD11F0004F4FEA01314FF4801C71
:1001C0004CEA113102D0404261EB410113F0004F83
:1001D0004FEA03334CEA133302D0524263EB43033A
:1001E00094EA050F00F0A780A4F10104D5F1200ED8
:1001F0000DDB02FA0EFC22FA05F2801841F1000133
:1002000003FA0EF2801843FA05F359410EE0A5F106
:1002100020050EF1200E012A03FA0EFC28BF4CF037
:10022000020C43FA05F3C01851EBE37101F00045ED
:1002300007D54FF0000EDCF1000C7EEB00006EEBFA
:100240000101B1F5801F1BD3B1F5001F0CD3490884
:100250005FEA30004FEA3C0C04F101044FEA4452DB
:1002600012F5800F80F09A80BCF1004F08BF5FEA62
:10027000500C50F1000041EB045141EA050130BD42
:100280005FEA4C0C404141EB0101013C28BFB1F554
:10029000801FE9D291F0000F04BF01460020B1FA9F
:1002A00081F308BF2033A3F10B03B3F120020CDA72
:1002B0000C3208DD02F1140CC2F10C0201FA0CF050
:1002C00021FA02F10CE002F11402D8BFC2F1200CB5
:1002D00001FA02F120FA0CFCDCBF41EA0C0190406B
:1002E000E41AA2BF01EB0451294330BD6FEA0404B4
:1002F0001F3C1CDA0C340EDC04F11404C4F120029F
:1003000020FA04F001FA02F340EA030021FA04F3B0
:1003100045EA030130BDC4F10C04C4F1200220FA07
:1003200002F001FA04F340EA0300294630BD21FA45
:1003300004F0294630BD94F0000F83F4801306BF0B
:1003400081F480110134013D4EE77FEA645C18BFFF
:100350007FEA655C29D094EA050F08BF90EA020F96
:1003600005D054EA000C04BF1946104630BD91EA8E
:10037000030F1EBF0021002030BD5FEA545C05D191
:100380004000494128BF41F0004130BD14F58004D0
:100390003CBF01F5801130BD01F0004545F0FE4144
:1003A00041F470014FF0000030BD7FEA645C1ABF79
:1003B000194610467FEA655C1CBF0B46024650EAB0
:1003C000013406BF52EA033591EA030F41F40021DC
:1003D00030BD00BF90F0000F04BF0021704730B562
:1003E0004FF4806404F132044FF000054FF0000137
:1003F00050E700BF90F0000F04BF0021704730B5F8
:100400004FF4806404F1320410F0004548BF4042CC
:100410004FF000013EE700BF42004FEAE2014FEA21
:1004200031014FEA02701FBF12F07F4393F07F4FFC
:1004300081F06051704732F07F4208BF704793F0FF
:100440007F4F04BF41F40021704730B54FF4607412
:1004500001F0004521F000411CE700BF50EA010215
:1004600008BF704730B54FF000050AE050EA0102BE
:1004700008BF704730B511F0004502D5404261EB2E
:1004800041014FF4806404F132045FEA915C3FF46F
:10049000D8AE4FF003025FEADC0C18BF03325FEA0C
:1004A000DC0C18BF033202EBDC02C2F1200300FABD
:1004B00003FC20FA02F001FA03FE40EA0E0021FAE2
:1004C00002F11444BDE600BF70B54FF0FF0C4CF4D0
:1004D000E06C1CEA11541DBF1CEA135594EA0C0F82
:1004E00095EA0C0F00F0DEF82C4481EA030621EABD
:1004F0004C5123EA4C5350EA013518BF52EA0335F8
:1005000041F4801143F4801338D0A0FB02CE4FF0A9
:100510000005E1FB02E506F00042E0FB03E54FF0D9
:100520000006E1FB03569CF0000F18BF4EF0010ED1
:10053000A4F1FF04B6F5007F64F5407404D25FEACD
:100540004E0E6D4146EB060642EAC62141EA555180
:100550004FEAC52040EA5E504FEACE2EB4F1FD0CC2
:1005600088BFBCF5E06F1ED8BEF1004F08BF5FEA40
:10057000500E50F1000041EB045170BD06F00046F2
:1005800046EA010140EA020081EA0301B4EB5C049F
:10059000C2BFD4EB0C0541EA045170BD41F4801197
:1005A0004FF0000E013C00F3AB8014F1360FDEBFBC
:1005B000002001F0004170BDC4F10004203C35DA98
:1005C0000C341BDC04F11404C4F1200500FA05F31B
:1005D00020FA04F001FA05F240EA020001F00042BC
:1005E00021F0004110EBD37021FA04F642EB060132
:1005F0005EEA430E08BF20EAD37070BDC4F10C045C
:10060000C4F1200500FA04F320FA05F001FA04F21F
:1006100040EA020001F0004110EBD37041F100010B
:100620005EEA430E08BF20EAD37070BDC4F1200516
:1006300000FA05F24EEA020E20FA04F301FA05F27E
:1006400043EA020321FA04F001F0004121FA04F226
:1006500020EA020000EBD3705EEA430E08BF20EAF6
:10066000D37070BD94F0000F0FD101F00046400030
:1006700041EB010111F4801F08BF013CF7D041EAB2
:10068000060195F0000F18BF704703F000465200B6
:1006900043EB030313F4801F08BF013DF7D043EA87
:1006A0000603704794EA0C0F0CEA135518BF95EA3D
:1006B0000C0F0CD050EA410618BF52EA4306D1D1C4
:1006C00081EA030101F000414FF0000070BD50EAE3
:1006D000410606BF1046194652EA430619D094EA6D
:1006E0000C0F02D150EA013613D195EA0C0F05D157
:1006F00052EA03361CBF104619460AD181EA0301AB
:1007000001F0004141F0FE4141F470014FF0000062
:1007100070BD41F0FE4141F4780170BD70B54FF0FD
:10072000FF0C4CF4E06C1CEA11541DBF1CEA13557D
:1007300094EA0C0F95EA0C0F00F0A7F8A4EB05045F
:1007400081EA030E52EA03354FEA013100F0888056
:100750004FEA03334FF0805545EA131343EA12631F
:100760004FEA022245EA111545EA10654FEA0026D4
:100770000EF000419D4208BF964244F1FD0404F58D
:10078000407402D25B084FEA3202B61A65EB0305E9
:100790005B084FEA32024FF480104FF4002CB6EBA6
:1007A000020E75EB030E22BFB61A754640EA0C0026
:1007B0005B084FEA3202B6EB020E75EB030E22BF66
:1007C000B61A754640EA5C005B084FEA3202B6EBA7
:1007D000020E75EB030E22BFB61A754640EA9C0066
:1007E0005B084FEA3202B6EB020E75EB030E22BF36
:1007F000B61A754640EADC0055EA060E18D04FEAF4
:10080000051545EA16754FEA06164FEAC30343EA93
:1008100052734FEAC2025FEA1C1CC0D111F4801F60
:100820000BD141EA00014FF000004FF0004CB6E759
:1008300011F4801F04BF01430020B4F1FD0C88BFF8
:10084000BCF5E06F3FF6AFAEB5EB030C04BFB6EB03
:10085000020C5FEA500C50F1000041EB045170BDF6
:100860000EF0004E4EEA113114EB5C04C2BFD4EB23
:100870000C0541EA045170BD41F480114FF0000EA7
:10088000013C90E645EA060E8DE60CEA135594EA23
:100890000C0F08BF95EA0C0F3FF43BAF94EA0C0F26
:1008A0000AD150EA01347FF434AF95EA0C0F7FF49B
:1008B00025AF104619462CE795EA0C0F06D152EAEF
:1008C00003353FF4FDAE1046194622E750EA4106D3
:1008D00018BF52EA43067FF4C5AE50EA41047FF4E4
:1008E0000DAF52EA43057FF4EBAE12E74FEA410247
:1008F000B2F1E04324BFB3F5001CDCF1FE5C0DD97E
:1009000001F0004C4FEAC0024CEA5070B2F1004FC7
:1009100040EB830008BF20F00100704711F0804FCA
:1009200021D113F13872BCBF01F00040704741F48F
:1009300080114FEA5252C2F11802C2F1200C10FA93
:100940000CF320FA02F018BF40F001004FEAC12377
:100950004FEAD32303FA0CFC40EA0C0023FA02F31B
:100960004FEA4303CCE77FEA625307D150EA0133F1
:100970001EBF4FF0FE4040F44000704701F00040C1
:1009800040F0FE4040F40000704700BF80F000409F
:1009900002E000BF81F0004142001FBF5FEA410357
:1009A00092EA030F7FEA226C7FEA236C6AD04FEA57
:1009B0001262D2EB1363C1BFD2184140484041409C
:1009C000B8BF5B42192B88BF704710F0004F40F44E
:1009D000000020F07F4018BF404211F0004F41F46A
:1009E000000121F07F4118BF494292EA030F3FD036
:1009F000A2F1010241FA03FC10EB0C00C3F1200349
:100A000001FA03F100F0004302D5494260EB4000D7
:100A1000B0F5000F13D3B0F1807F06D340084FEA42
:100A2000310102F10102FE2A51D2B1F1004F40EB37
:100A3000C25008BF20F0010040EA0300704749009F
:100A400040EB0000013A28BFB0F5000FEDD2B0FA3C
:100A500080FCACF1080CB2EB0C0200FA0CF0AABF5F
:100A600000EBC25052421843BCBFD04018437047FD
:100A700092F0000F81F4000106BF80F40000013203
:100A8000013BB5E74FEA41037FEA226C18BF7FEADA
:100A9000236C21D092EA030F04D092F0000F08BF1C
:100AA0000846704790EA010F1CBF0020704712F003
:100AB0007F4F04D1400028BF40F00040704712F142
:100AC00000723CBF00F50000704700F0004343F0A7
:100AD000FE4040F4000070477FEA226216BF0846DD
:100AE0007FEA23630146420206BF5FEA412390EAA0
:100AF000010F40F4800070474FF0000304E000BF96
:100B000010F0004348BF40425FEA000C08BF704746
:100B100043F0964301464FF000001CE050EA01020A
:100B200008BF70474FF000030AE000BF50EA01021F
:100B300008BF704711F0004302D5404261EB41010C
:100B40005FEA010C02BF84460146002043F0B64331
:100B500008BFA3F18053A3F50003BCFA8CF2083A56
:100B6000A3EBC25310DB01FA02FC634400FA02FC5F
:100B7000C2F12002BCF1004F20FA02F243EB020066
:100B800008BF20F00100704702F1200201FA02FCC8
:100B9000C2F1200250EA4C0021FA02F243EB0200BB
:100BA00008BF20EADC7070474FF0FF0C1CEAD052FF
:100BB0001EBF1CEAD15392EA0C0F93EA0C0F6FD0C0
:100BC0001A4480EA010C400218BF5FEA41211ED09E
:100BD0004FF0006343EA501043EA5111A0FB01318A
:100BE0000CF00040B1F5000F3EBF490041EAD3715F
:100BF0005B0040EA010062F17F02FD2A1DD8B3F1DB
:100C0000004F40EBC25008BF20F00100704790F049
:100C1000000F0CF0004C08BF49024CEA502040EA9B
:100C200051207F3AC2BFD2F1FF0340EAC250704761
:100C300040F400004FF00003013A5DDC12F1190F9F
:100C4000DCBF00F000407047C2F10002410021FA11
:100C500002F1C2F1200200FA02FC5FEA310040F129
:100C6000000053EA4C0308BF20EADC70704792F0A2
:100C7000000F00F0004C02BF400010F4000F013ADA
:100C8000F9D040EA0C0093F0000F01F0004C02BFD5
:100C9000490011F4000F013BF9D041EA0C018FE744
:100CA0000CEAD15392EA0C0F18BF93EA0C0F0AD04A
:100CB00030F0004C18BF31F0004CD8D180EA010070
:100CC00000F00040704790F0000F17BF90F0004F09
:100CD000084691F0000F91F0004F14D092EA0C0FEB
:100CE00001D142020FD193EA0C0F03D14B0218BF7E
:100CF000084608D180EA010000F0004040F0FE40C4
:100D000040F40000704740F0FE4040F4400070475F
:100D10004FF0FF0C1CEAD0521EBF1CEAD15392EADE
:100D20000C0F93EA0C0F69D0A2EB030280EA010CCE
:100D300049024FEA402037D04FF0805343EA111167
:100D400043EA10130CF000408B4238BF5B0042F1C5
:100D50007D024FF4000C8B4224BF5B1A40EA0C006A
:100D6000B3EB510F24BFA3EB510340EA5C00B3EB9C
:100D7000910F24BFA3EB910340EA9C00B3EBD10F8A
:100D800024BFA3EBD10340EADC001B0118BF5FEADC
:100D90001C1CE0D1FD2A3FF650AF8B4240EBC25005
:100DA00008BF20F0010070470CF0004C4CEA5020C6
:100DB0007F32C2BFD2F1FF0340EAC250704740F415
:100DC00000004FF00003013A37E792F0000F00F007
:100DD000004C02BF400010F4000F013AF9D040EA85
:100DE0000C0093F0000F01F0004C02BF490011F419
:100DF000000F013BF9D041EA0C0195E70CEAD15311
:100E000092EA0C0F08D142027FF47DAF93EA0C0FF7
:100E10007FF470AF084676E793EA0C0F04D14B02DB
:100E20003FF44CAF08466EE730F0004C18BF31F08D
:100E3000004CCAD130F000427FF45CAF31F0004387
:100E40007FF43CAF5FE700BF4FF0FF3C06E000BF20
:100E50004FF0010C02E000BF4FF0010C4DF804CD43
:100E60004FEA40024FEA41037FEA226C18BF7FEA53
:100E7000236C11D001B052EA530C18BF90EA010F55
:100E800058BFB2EB030088BFC81738BF6FEAE170E4
:100E900018BF40F0010070477FEA226C02D15FEA80
:100EA000402C05D17FEA236CE4D15FEA412CE1D0EC
:100EB0005DF8040B704700BF844608466146FFE7B3
:100EC0000FB5FFF7C9FF002848BF10F1000F0FBD95
:100ED0004DF808EDFFF7F4FF0CBF012000205DF88E
:100EE00008FB00BF4DF808EDFFF7EAFF34BF012013
:100EF00000205DF808FB00BF4DF808EDFFF7E0FFAC
:100F000094BF012000205DF808FB00BF4DF808EDFC
:100F1000FFF7D2FF94BF012000205DF808FB00BF5F
:100F20004DF808EDFFF7C8FF34BF012000205DF841
:100F300008FB00BF42000ED2B2F1FE4F0BD34FF0C0
:100F40009E03B3EB126209D44FEA002343F000433F
:100F500023FA02F070474FF00000704712F1610F62
:100F600001D1420202D14FF0FF3070474FF0000034
:100F7000704700BF00B583B00E4B5A6942F00102C2
:100F80005A615B6903F001030193019B0022114642
:100F90000E2000F0E7FD0E2000F01CFE002211469E
:100FA0000F2000F0DFFD0F2000F014FE03B05DF80D
:100FB00004FB00BF001002402DE9F04389B000247B
:100FC00004940594069407942E4B9A6942F01002FB
:100FD0009A619A6902F010020092009A9A6942F0AE
:100FE00020029A619A6902F020020192019A9A699C
:100FF00042F004029A619A6902F004020292029A93
:101000009A6942F008029A619B6903F0080303930E
:10101000039BDFF8749022464FF40051484601F0DC
:10102000A5F8DFF8688022464FF41041404601F0F1
:101030009DF8174F22461821384601F097F84FF4D3
:10104000005304930126059606940225079504A9EA
:10105000484600F079FF4FF4104304930596069438
:10106000079504A9404600F06FFF182304930596E6
:101070000694079504A9384600F066FF09B0BDE85C
:10108000F08300BF00100240001001400008014042
:10109000000C0140074A00231360536093601374EF
:1010A0000021D160044A1360536093601374D160CF
:1010B000704700BF58040020B00400200160426067
:1010C0008360009BC3600023036143618361C3614C
:1010D0000362024B4362024B836270470000484345
:1010E000000048C32DE9F8430446C068FFF752FCEE
:1010F00005462061A169FFF74FFCA061D4F8248068
:101100004146FFF70DFF08B1C4F81880A76A3946B9
:10111000A069FFF7E7FE00B1A76161692846FFF704
:1011200039FC0646E06121682846FFF73DFD81460F
:10113000A1696068FFF738FD01464846FFF72CFCBF
:101140008146A1683046FFF72FFD01464846FFF76C
:1011500023FC014620624046FFF7C4FE08B1C4F8F4
:101160002080216A3846FFF7DBFE00B12762656107
:10117000206ABDE8F8830000514B834200D07047DD
:101180002DE9F0414F4E0021304601F0CBFB0546E2
:1011900000214D4801F0C6FB04464C4B1D604C4BF2
:1011A000186033681B6813F0100F5ED1474B5B6803
:1011B000AB4202D8EB1A454A9360444B00221A74A2
:1011C000424B1B7C002B5BD1404B9868FFF794FC93
:1011D00006463D4B1B681B6813F0100F57D13C4B64
:1011E0005B68A34202D8E31A394A9360384B002265
:1011F0001A74374B1B7C002B54D1354B9868FFF782
:101200007BFC804633493046FFF782FD3249FFF7C9
:10121000CBFCFFF701F928A3D3E90023FFF77EFAFF
:10122000FFF764FB0646294FF8607D602949404678
:10123000FFF76EFD2849FFF7B7FCFFF7EDF81EA397
:10124000D3E90023FFF76AFAFFF750FB204DE8606F
:101250006C6031462148FFF745FF7861E968204816
:10126000FFF740FF6861BDE8F081184B5B68AB4257
:1012700002D35B1B154A9360144B01221A749FE73B
:10128000124B9868FFF738FC00F10046A1E7104BBD
:101290005B68A34202D31B1B0D4A93600C4B0122D7
:1012A0001A74A6E70A4B9868FFF726FC00F100487D
:1012B000A8E700BFAFF300807B14AE47E17A843F1C
:1012C000F40400203C050020840500205804002080
:1012D000B004002000002F44000070427004002081
:1012E000C804002084460023184605E01CF80320AB
:1012F0001044C0B20133DBB28B42F7D37047000019
:1013000010B5124B1B78A52B05D00B220F491048A6
:1013100002F0CCFA10BD0D4B9B7A5A2BF5D10B483D
:10132000447A08210130FFF7DDFF8442EDD1094BFB
:10133000064AD2F801101960D2F805205A6000223E
:101340004FF40051044800F011FFDEE7A404002030
:10135000540600209C0400200010014072B6FEE7F5
:1013600000B591B02822002106A802F0D7FA002388
:1013700001930293039304930593012206924FF481
:10138000803307930A9202220D920E934FF4E013DA
:101390000F9306A800F006FF80B90F2301930221E6
:1013A0000291002303934FF480620492059301A8F5
:1013B00001F02AF920B911B05DF804FBFFF7CEFF68
:1013C000FFF7CCFF70B582B000F096FBFFF7C8FFC7
:1013D000FFF7F2FDFFF7CEFD00F032FA00F02AF938
:1013E00000F058F900F0AAFAFFF754FE3C215148EA
:1013F00001F002FE3C21504801F0FEFD4F4E504DE1
:10140000504C4FF08543009333462A4621464E48C0
:10141000FFF754FE0023009333462A4621464B48EB
:10142000FFF74CFE4A4C0C21204601F077FD0021CD
:10143000204601F073FD0B224649474802F036FA78
:101440003DE046492846FFF763FC4549FFF7ACFB02
:10145000064642492046FFF75BFC4149FFF7A4FBE3
:10146000044600213046FFF73DFD002848D1002208
:1014700010213C4800F07AFE01224FF400413A4826
:1014800000F074FE00212046FFF72CFD002845D017
:1014900001224FF48051344800F068FE00220821F8
:1014A000304800F063FE04F10044294B1D683046CB
:1014B000FFF740FD28642046FFF73CFD68630022EB
:1014C0004FF40051294800F051FE294B5C681E681A
:1014D00031462046FFF760FA054631462046FFF7C1
:1014E00059FA04461D492846FFF71AFD00B11B4D65
:1014F0001A492046FFF714FD0028A2D0174CA0E798
:1015000001221021174800F031FE00224FF4004163
:10151000154800F02BFE06F10046B3E700224FF419
:101520008051114800F022FE012208210D4800F0F0
:101530001DFEBAE73C05002084050020CDCC4C3EC2
:101540009A99993ECDCCCC3E70040020C80400206E
:10155000F4040020A40400205406002000000C43E2
:1015600000401C46000C01400008014000100140F2
:101570009C04002082B00E4B9A6942F001029A61ED
:101580009A6902F001020092009ADA6942F08052F0
:10159000DA61DB6903F080530193019B054A5368CC
:1015A00023F0E06343F00073536002B0704700BF64
:1015B0000010024000000140FEE7FEE7FEE7FEE704
:1015C000FEE770477047704708B500F0A7FA08BDFE
:1015D00008B5024800F016FC08BD00BF1006002048
:1015E00008B5024800F00EFC08BD00BFCC05002085
:1015F00008B5024801F0B3F908BD00BFF4040020AB
:1016000008B5024801F0ABF908BD00BF3C05002059
:1016100008B5024801F0A3F908BD00BF8405002009
:1016200008B5024801F050FF08BD00BF5406002075
:101630007047000000B58DB02422002103A802F0FD
:101640006DF900230193029311484FF0804202602C
:101650000122426083604FF6FF71C16003618361C4
:1016600003920592099203A901F0C2FA50B900232E
:101670000193029301A9064801F024FD28B90DB099
:101680005DF804FBFFF76AFEF1E7FFF767FEF6E798
:101690003C05002000B58DB02422002103A802F0F3
:1016A0003DF90023019302931148124A026001227E
:1016B000426083604FF6FF71C160036183610392F2
:1016C0000592099203A901F093FA50B900230193FE
:1016D000029301A9064801F0F5FC28B90DB05DF8A8
:1016E00004FBFFF73BFEF1E7FFF738FEF6E700BF2C
:1016F000840500200004004002680E4B9A4200D08E
:10170000704700B583B003F564439A6942F4006200
:101710009A619B6903F400630193019B00221146C7
:10172000192000F01FFA192000F054FA03B05DF8F8
:1017300004FB00BF002C014000B589B000230493D6
:101740000593069307930368B3F1804F05D0254AAC
:10175000934225D009B05DF804FB03F50433DA6940
:1017600042F00102DA61DA6902F001020092009AA5
:101770009A6942F004029A619B6903F004030193A1
:10178000019B0323049304A9174800F0DDFB00220A
:1017900011461C2000F0E6F91C2000F01BFAD9E7E6
:1017A000124BDA6942F00202DA61DA6902F00202EF
:1017B0000292029A9A6942F004029A619B6903F0CC
:1017C00004030393039BC023049304A9064800F079
:1017D000BBFB002211461D2000F0C4F91D2000F0C3
:1017E000F9F9B7E70004004000080140001002408A
:1017F00000B587B000230293039304930593026816
:101800000D4B9A4202D007B05DF804FB03F5644328
:101810009A6942F004029A619B6903F00403019300
:10182000019B4FF41063029302230393059302A9D3
:10183000024800F089FBE6E7002C01400008014067
:1018400010B596B000241294139414941594109427
:10185000119409940A940B940C940D940E940F9483
:101860002022214601A802F059F83248324B036089
:1018700047234360846042F20F73C3600461446194
:10188000846101F05DF900283ED14FF4805312933A
:1018900012A9284801F0B4FA002838D1254801F0EF
:1018A0007BF9002836D100231093119310A9214809
:1018B00001F008FC002830D16023099300220A922D
:1018C0000B920C920D920E920F9209A9194801F0F9
:1018D0001DFA28BB0C2209A9164801F017FA10BB03
:1018E0000023019302930393049305934FF4005252
:1018F0000692089301A90F4801F01AFCB0B90D48EF
:10190000FFF776FF16B010BDFFF728FDBDE7FFF724
:1019100025FDC3E7FFF722FDC5E7FFF71FFDCBE776
:10192000FFF71CFDD6E7FFF719FDD9E7FFF716FD16
:10193000E5E700BFF4040020002C014008B50A4888
:101940000A4B03604FF41653436000238360C36067
:1019500003610C2242618361C36101F0CDFC00B9D7
:1019600008BDFFF7FBFCFBE75406002000380140F0
:1019700070B586B000230293039304930593026825
:10198000314B9A4201D006B070BD044603F558436E
:101990009A6942F480429A619A6902F48042009204
:1019A000009A9A6942F004029A619B6903F0040369
:1019B0000193019B4FF400730293022303930323CB
:1019C0000593224E02A9304600F0BEFA4FF4806320
:1019D000029300250395049502A9304600F0B4FA5D
:1019E0001B481C4B0360456085608023C360056114
:1019F00045618561C56100F025F9F0B9144BE363D9
:101A00005C621548154B036010234360002383601C
:101A10008022C260036143618361C36100F012F9F7
:101A200070B90D4BA3635C6200221146252000F0C3
:101A300099F8252000F0CEF8A5E7FFF78FFCDDE749
:101A4000FFF78CFCEDE700BF0038014000080140C3
:101A5000CC0500205800024010060020440002403F
:101A6000FFF7E6FD0B480C490C4A002302E0D4586E
:101A7000C4500433C4188C42F9D3094A094C0023DA
:101A800001E013600432A242FBD301F023FFFFF711
:101A900099FC7047000000203C040020F43A000844
:101AA0003C040020A4060020FEE7000010B5044618
:101AB0000E4B18784FF47A73B3FBF0F30C4A1068AE
:101AC000B0FBF3F000F094F868B90F2C01D90120B5
:101AD0000AE0002221464FF0FF3000F043F8054BAA
:101AE0001C60002000E0012010BD00BF04000020A9
:101AF000000000200800002008B5074A136843F0E2
:101B000010031360032000F01BF80F20FFF7CEFF37
:101B1000FFF730FD002008BD00200240034A116895
:101B2000034B1B780B441360704700BF9C060020DA
:101B300004000020014B1868704700BF9C0600207D
:101B4000074AD36823F4E0631B041B0C000200F473
:101B5000E060034343F0BF6343F40033D360704756
:101B600000ED00E000B5194BDB68C3F30223C3F1BD
:101B7000070CBCF1040F28BF4FF0040C03F1040E56
:101B8000BEF1060F18D9033B4FF0FF3E0EFA0CFCD6
:101B900021EA0C0199400EFA03F322EA03031943E8
:101BA00000280BDB0901C9B200F1604000F561407B
:101BB00080F800135DF804FB0023E5E700F00F0058
:101BC0000901C9B2024B1954F4E700BF00ED00E06F
:101BD00014ED00E0002807DB00F01F02400901239C
:101BE0009340024A42F82030704700BF00E100E015
:101BF0000138B0F1807F0BD24FF0E0235861054AE5
:101C0000F02182F823100020986107221A617047A2
:101C10000120704700ED00E030B40124056CAC40B9
:101C2000C56B6C60046863604368102B05D0036863
:101C300099600368DA6030BC704703689A60036893
:101C4000D960F8E760B310B402460168154B0B4445
:101C50001548A0FB03031B099B001364134BD363BC
:101C6000022382F82130086820F47F5020F03000F1
:101C7000536894682343D468234314692343546905
:101C8000234394692343D469234303430B60002017
:101C90009063012382F8213082F8200010BC704745
:101CA00001207047F8FFFDBFCDCCCCCC0000024036
:101CB00038B5044690F82000012832D0012084F87D
:101CC000200094F82100C0B2012804D0002384F839
:101CD0002030022038BD022084F821000020A063BB
:101CE0002568286820F0010028602046FFF794FF4F
:101CF000E36A5BB12268136843F00E031360226845
:101D0000136843F0010313600020E3E722681368BF
:101D100023F0040313602268136843F00A0313607E
:101D2000EDE70220D6E790F82130DBB2022B06D097
:101D300004238363002380F8203001207047026869
:101D4000136823F00E0313600268136823F0010385
:101D50001360036CC16B012202FA03F34B6080F83D
:101D60002120002380F820301846704708B590F8ED
:101D70002130DBB2022B03D004238363012008BD92
:101D80000268136823F00E0313600268136823F0DF
:101D9000010313600368194A934214D0143293422A
:101DA0001FD0143293421ED0143293421ED01432EC
:101DB00093421ED01432934202D04FF0807203E05F
:101DC0004FF4801200E001220D4B5A60012380F88D
:101DD0002130002380F82030436B6BB198470020FE
:101DE000CDE71022F0E74FF48072EDE74FF4805218
:101DF000EAE74FF48032E7E70020C0E7080002403E
:101E00000000024038B5C36B1A6804682568016C8D
:101E100004238B40134235D015F0040F32D02368D1
:101E200013F0200F03D1236823F004032360036819
:101E3000434A934214D01432934218D0143293423E
:101E400017D01432934217D01432934217D0143261
:101E5000934202D04FF0806203E04FF4800200E032
:101E60000422384B5A60C36A03B1984738BD4022F8
:101E7000F7E74FF48062F4E74FF48042F1E74FF464
:101E80008022EEE702238B4013423CD015F0020F74
:101E900039D0236813F0200F06D1236823F00A03FA
:101EA0002360012380F821300368254A934214D02F
:101EB000143293421CD0143293421BD014329342FA
:101EC0001BD0143293421BD01432934202D04FF0F5
:101ED000007203E04FF4001200E00222194B5A6036
:101EE000002380F82030836A002BBFD09847BDE7DD
:101EF0002022F3E74FF40072F0E74FF40052EDE7D1
:101F00004FF40032EAE7082303FA01F11142ADD0A1
:101F100015F0080FAAD0236823F00E032360026C8B
:101F2000C16B012303FA02F24A60836380F8213017
:101F3000002380F82030036B002B97D0984795E75B
:101F4000080002400000024070B582B00024A446A0
:101F5000A6E0804DAA4210D007D97F4DAA420CD0EE
:101F600005F58035AA4208D013E0A5F58015AA42F0
:101F700003D005F57025AA4207D18A68002A58D0F7
:101F8000012A51D04361082403E0A5F58015AA4237
:101F9000F3D0BEF1FF0F4ED80646BEF1FF0F4CD86E
:101FA0004FEA8C0233680F25954023EA050304FAB3
:101FB00002F2134333604B6813F0805F6ED0674BBF
:101FC0009A6942F001029A619B6903F0010301934F
:101FD000019B4FEA9C02951C614B53F825600CF065
:101FE00003039D000F23AB4026EA03065D4B984296
:101FF00029D003F58063984200F08E8003F580635A
:10200000984200F08B8003F58063984219D0042336
:102010001AE0CC68BDE7CC680434BAE7CC68083471
:10202000B7E7CC680C34B4E703610824B1E70024B7
:10203000AFE70424ADE7061DAFE7ACF1080292005C
:10204000B0E7032300E00023AB4033430232444DAA
:1020500045F822304B6813F4801F61D0424A9368E0
:1020600043EA0E0393604B6813F4001F5ED03E4AB0
:10207000D36843EA0E03D3604B6813F4003F5BD090
:10208000394A536843EA0E0353604B6813F4803FA8
:1020900058D0354A136843EA0E0313600CF1010C63
:1020A0000A6832FA0CF353D0012303FA0CF302EA64
:1020B000030E33EA0202F1D14A68122A3FF649AF11
:1020C000122A3FF666AF01A555F822F07B1F0008E3
:1020D000132000081D2000082F200008931F00086F
:1020E000931F0008931F0008931F0008931F000808
:1020F000931F0008931F0008931F0008931F0008F8
:10210000931F0008931F0008931F0008931F0008E7
:102110001720000823200008012395E7022393E7F6
:10212000114A936823EA0E0393609CE70E4AD36832
:1021300023EA0E03D3609FE70B4A536823EA0E039A
:102140005360A2E7084A136823EA0E031360A5E769
:1021500002B070BD000022100000311000100240DB
:102160000000014000080140000401400AB1016183
:10217000704709040161704782B0084B1B68084A28
:10218000A2FB03235B0A00FB03F3019300BF019B47
:102190005A1E0192002BF9D102B0704700000020B6
:1021A000D34D6210002800F0F18170B582B0044672
:1021B000036813F0010F2CD0994B5B6803F00C03FC
:1021C000042B1DD0964B5B6803F00C03082B12D038
:1021D0006368B3F5803F41D0002B55D103F18043B4
:1021E00003F504331A6822F480321A601A6822F464
:1021F00080221A6037E08A4B5B6813F4803FE7D097
:10220000874B1B6813F4003F03D06368002B00F07A
:10221000BF81236813F0020F75D0814B5B6813F008
:102220000C0F5FD07E4B5B6803F00C03082B54D07F
:102230002369002B00F08A807A4B01221A60FFF795
:1022400079FC0546764B1B6813F0020F75D1FFF73A
:1022500071FC401B0228F5D903209EE1704A1368E7
:1022600043F480331360636843B3FFF763FC0546B0
:102270006B4B1B6813F4003FCBD1FFF75BFC401B9B
:102280006428F5D9032088E1B3F5A02F09D0644B69
:102290001A6822F480321A601A6822F480221A60C6
:1022A000E1E703F18043A3F53C331A6842F480224E
:1022B0001A601A6842F480321A60D4E7FFF73AFCD9
:1022C0000546574B1B6813F4003FA2D0FFF732FCC2
:1022D000401B6428F5D903205FE1514B5B6813F480
:1022E000803FA5D14E4B1B6813F0020F03D023692A
:1022F000012B40F04F814A4A136823F0F8036169CB
:1023000043EAC1031360236813F0080F33D0A369B5
:10231000002B5CD0434B0122C3F88024FFF70AFC5A
:1023200005463F4B5B6A13F0020F21D1FFF702FC19
:10233000401B0228F5D903202FE1394A136823F006
:10234000F803616943EAC1031360DCE7354B0022FF
:102350001A60FFF7EFFB0546314B1B6813F0020FC5
:10236000D1D0FFF7E7FB401B0228F5D9032014E189
:102370000120FFF701FF236813F0040F00F096809F
:10238000274BDB6913F0805F34D1254BDA6942F0CB
:102390008052DA61DB6903F080530193019B0125D0
:1023A000214B1B6813F4807F26D0E368012B3DD0BE
:1023B000002B53D103F1804303F504331A6A22F052
:1023C00001021A621A6A22F004021A6233E0154B03
:1023D0000022C3F88024FFF7ADFB0546104B5B6A73
:1023E00013F0020FC7D0FFF7A5FB401B0228F5D959
:1023F0000320D2E00025D3E70B4A136843F480732F
:102400001360FFF797FB0646074B1B6813F4807FAA
:10241000CBD1FFF78FFB801B6428F5D90320BCE0EC
:102420000010024000004242007000405F4A136A00
:1024300043F001031362E36833B3FFF77BFB064607
:102440005A4B1B6A13F0020F2FD1FFF773FB801B4F
:1024500041F288339842F3D903209EE0052B09D03E
:10246000524B1A6A22F001021A621A6A22F004021E
:102470001A62E0E74D4B1A6A42F004021A621A6AC5
:1024800042F001021A62D6E7FFF754FB0646474BBB
:102490001B6A13F0020F08D0FFF74CFB801B41F2C0
:1024A00088339842F3D9032077E0E5B9E369002B3C
:1024B00072D03E4A526802F00C02082A56D0022B13
:1024C00017D03B4B00221A66FFF734FB0446374B0C
:1024D0001B6813F0007F47D0FFF72CFB001B02287E
:1024E000F5D9032059E0314AD36923F08053D361F1
:1024F000DCE72F4B00221A66FFF71CFB05462B4B2F
:102500001B6813F0007F06D0FFF714FB401B022866
:10251000F5D9032041E0236AB3F5803F1AD023495F
:102520004B6823F47413226A606A024313434B60BE
:102530001F4B01221A66FFF7FDFA04461B4B1B686E
:1025400013F0007F0ED1FFF7F5FA001B0228F5D932
:10255000032022E0154A536823F40033A1680B439B
:102560005360DCE7002018E0002016E0012B16D0B5
:102570000E4B5B6803F48031226A914211D103F45F
:102580007013626A93420ED1002006E0012070476A
:10259000012002E0012000E0002002B070BD012017
:1025A000FBE70120F9E70120F7E700BF0010024038
:1025B000000042420F4B5B6803F00C02082A01D076
:1025C0000D487047C3F383420C49885C13F4803F85
:1025D0000BD0084B5B68C3F34043094AD35C064AFF
:1025E00002FB00F0B0FBF3F07047064B03FB00F07A
:1025F000704700BF0010024000127A00D03A000875
:10260000E03A000800093D00002800F0A08070B505
:102610000D460446524B1B6803F007038B420BD256
:102620004F4A136823F007030B431360136803F04A
:1026300007038B4240F08D80236813F0020F17D000
:1026400013F0040F04D0474A536843F4E063536027
:10265000236813F0080F04D0424A536843F46053D0
:102660005360404A536823F0F003A1680B43536062
:10267000236813F0010F31D06368012B20D0022BA7
:1026800025D0384A126812F0020F64D035494A68E2
:1026900022F0030213434B60FFF74CFA0646314B1E
:1026A0005B6803F00C036268B3EB820F16D0FFF790
:1026B00041FA801B41F288339842F0D9032045E06B
:1026C000284A126812F4003FE0D101203EE0254A7A
:1026D000126812F0007FD9D1012037E0204B1B682F
:1026E00003F00703AB420AD91D4A136823F007031E
:1026F0002B431360136803F00703AB422DD123680B
:1027000013F0040F06D0174A536823F4E063E1681E
:102710000B435360236813F0080F07D0114A536826
:1027200023F46053216943EAC1035360FFF742FF7A
:102730000C4B5B68C3F303130B4AD35CD8400B4BC1
:1027400018600B4B1868FFF7B1F9002070BD01202D
:1027500070470120FAE70120F8E70120F6E700BF03
:102760000020024000100240B83A0008000000209B
:1027700008000020014B1868704700BF00000020CF
:1027800008B5FFF7F7FF044B5B68C3F30223034A66
:10279000D35CD84008BD00BF00100240C83A000812
:1027A00008B5FFF7E7FF044B5B68C3F3C223034A96
:1027B000D35CD84008BD00BF00100240C83A0008F2
:1027C00070B4036A026A22F00102026246688269FA
:1027D00022F073020C6844EA020523F002028B68BF
:1027E00013430D4CA04209D00B4CA0420DD04660C3
:1027F00085614A684263036270BC704723F0080336
:10280000CA68134323F00403EEE726F440764A69CE
:1028100032438E691643EAE7002C014030B4036A64
:10282000026A22F4807202624568C26922F0730271
:102830000C68224323F400738C6843EA04230F4C92
:10284000A04209D00D4CA0420ED04560C2614A683A
:10285000C263036230BC704723F40063CC6843EA70
:10286000042323F48063EDE725F440554C6945EAE1
:1028700004158C6945EA0415E7E700BF002C014008
:1028800030B4036A026A22F4805202624468C26968
:1028900022F4E6420D6842EA052223F400538D68D3
:1028A00043EA0533074DA84206D04460C2614A6836
:1028B0000264036230BC704724F480444D6944EAEA
:1028C0008514F2E7002C014010B4036A046A24F076
:1028D00001040462846924F0F00C4CEA021223F033
:1028E0000A030B438261036210BC704710B4036A91
:1028F000046A24F010040462846924F4704C4CEAE5
:10290000023223F0A00343EA01138261036210BC88
:102910007047836823F070030B4343F00703836021
:10292000704770470C2914D8DFE801F00713131320
:102930000A1313130D13131310000368586B704719
:102940000368986B70470368D86B70470368186C0E
:10295000704700207047704770477047704770B5E8
:1029600004460368DE681D6915F0020F10D016F0EA
:10297000020F0DD06FF002021A6101230377036882
:102980009B6913F0030F5ED0FFF7E6FF0023237768
:1029900015F0040F12D016F0040F0FD023686FF05B
:1029A00004021A610223237723689B6913F4407F92
:1029B0004FD02046FFF7D0FF0023237715F0080FF4
:1029C00012D016F0080F0FD023686FF008021A61BA
:1029D000042323772368DB6913F0030F40D02046DC
:1029E000FFF7BAFF0023237715F0100F12D016F06F
:1029F000100F0FD023686FF010021A61082323779D
:102A00002368DB6913F4407F31D02046FFF7A4FF31
:102A10000023237715F0010F02D016F0010F2DD1FE
:102A200015F0800F02D016F0800F2FD115F0400F57
:102A300002D016F0400F31D115F0200F02D016F061
:102A4000200F33D170BDFFF786FF2046FFF785FFCB
:102A50009CE72046FFF77FFF2046FFF77EFFABE7AE
:102A60002046FFF778FF2046FFF777FFBAE72046BA
:102A7000FFF771FF2046FFF770FFC9E723686FF08B
:102A800001021A612046FEF777FBC9E723686FF061
:102A900080021A61204600F075FBC7E723686FF0DB
:102AA00040021A612046FFF759FFC5E723686FF01F
:102AB00020021A61204600F064FBC3E703681F4A46
:102AC00090420AD0B0F1804F07D0A2F594329042E4
:102AD00003D002F58062904203D123F070034A686C
:102AE0001343164A90420AD0B0F1804F07D0A2F5A6
:102AF0009432904203D002F58062904203D123F4D5
:102B00004073CA68134323F080034A691343036088
:102B10008B68C3620B688362084B98420AD001231A
:102B20004361036913F0010F03D0036923F001032C
:102B3000036170470B690363F1E700BF002C01409C
:102B400040B310B5044690F83D30F3B1022384F849
:102B50003D30214651F8040BFFF7B0FF012384F804
:102B6000463084F83E3084F83F3084F8403084F8B2
:102B7000413084F8423084F8433084F8443084F89B
:102B8000453084F83D30002010BD80F83C30FEF721
:102B9000B3FDDBE70120704740B310B5044690F861
:102BA0003D30F3B1022384F83D30214651F8040B47
:102BB000FFF784FF012384F8463084F83E3084F820
:102BC0003F3084F8403084F8413084F8423084F853
:102BD000433084F8443084F8453084F83D30002098
:102BE00010BD80F83C30FFF79CFEDBE7012070470A
:102BF000002857D070B50D46044690F83D30002BA4
:102C00004BD0022384F83D302268936823F480433C
:102C100023F007039360214651F8040BFFF74EFFA2
:102C200021688A688B690E6A2868104323F4407C07
:102C30002CF0030CAA68AB6942EA032343EA0C03B5
:102C400023F47C4323F0FC03EA69D5F80CC04CEA7A
:102C5000022C4CEA030C2A6A13032A6943EA021382
:102C600043EA0C0326F022066A686D6942EA0512FF
:102C70003243886021688B6123681A62012384F8DB
:102C8000463084F83E3084F83F3084F8423084F88F
:102C9000433084F83D30002070BD80F83C30FEF7B2
:102CA0004BFDAEE70120704730B4036A026A22F0A0
:102CB000100202624468826922F4E6420D6842EA28
:102CC000052223F020038D6843EA05130E4DA84228
:102CD00009D00D4DA8420ED0446082614A688263DB
:102CE000036230BC704723F08003CD6843EA0513CC
:102CF00023F04003EDE724F440644D6944EA850481
:102D00008D6944EA8504E7E7002C014038B590F866
:102D10003C30012B66D004460D46012380F83C3040
:102D20000C2A5AD8DFE802F0075959591B5959594A
:102D30003059595944000068FFF742FD22689369F1
:102D400043F0080393612268936923F004039361BD
:102D50002268936929690B43936100203EE0006873
:102D6000FFF7A2FF2268936943F40063936122682E
:102D7000936923F48063936122689369296943EA24
:102D800001239361002029E00068FFF747FD2268D6
:102D9000D36943F00803D3612268D36923F00403A5
:102DA000D3612268D36929690B43D361002015E000
:102DB0000068FFF765FD2268D36943F40063D361BF
:102DC0002268D36923F48063D3612268D3692969B7
:102DD00043EA0123D361002000E00120002384F8AE
:102DE0003C3038BD0220FCE710B4846824F47F4CEA
:102DF00042EA03220A4342EA0C02826010BC704796
:102E000090F83C30012B78D010B50446012380F8AF
:102E10003C30022380F83D300268936823F47F43FE
:102E200023F0770393600B68602B4CD029D8402B9C
:102E300054D00CD9502B22D1CA6849680068FFF7DA
:102E400043FD50212068FFF764FD002005E0202BA2
:102E50000DD009D9302B0AD00120012384F83D3050
:102E6000002384F83C3010BD0BB1102B05D119465E
:102E70002068FFF74EFD0020EFE70120EDE701207D
:102E8000EBE7B3F5805F34D0B3F5005F0CD1CB68CE
:102E90004A6889680068FFF7A7FF2268936843F4CF
:102EA000804393600020D8E7702B24D1CB684A6818
:102EB00089680068FFF798FF2268936843F07703FA
:102EC00093600020C9E7CA6849680068FFF70EFDF3
:102ED00060212068FFF71DFD0020BEE7CA68496831
:102EE0000068FFF7F1FC40212068FFF712FD002089
:102EF000B3E70020B1E70120AFE70220704701F0FF
:102F00001F01012303FA01FC036A23EA0C03036295
:102F1000036A02FA01F10B430362704710B50446DD
:102F2000084651BB94F83E30DBB2013B18BF012389
:102F3000002B5BD1002839D1022384F83E300122D6
:102F400001462068FFF7DBFF23682A4A93423DD001
:102F50002368284A93423ED0B3F1804F3BD0A2F57C
:102F60009432934237D002F58062934233D01A688C
:102F700042F001021A60002039E0042908D0082933
:102F80000DD094F84130DBB2013B18BF0123CFE7ED
:102F900094F83F30DBB2013B18BF0123C8E794F837
:102FA0004030DBB2013B18BF0123C1E7042805D044
:102FB000082807D0022384F84130C0E7022384F8B0
:102FC0003F30BCE7022384F84030B8E75A6C42F443
:102FD00000425A64BCE79A6802F00702062A07D04A
:102FE0001A6842F001021A60002000E0012010BDC2
:102FF0000020FCE7002C014038B5044690F83E0064
:10300000C0B294F83F3094F84220D2B294F843C052
:103010000D46B1B9012849D1012A48D1022384F8CB
:103020003E3084F842307DB3042D39D00122002196
:103030002068FFF764FF012204212068FFF75FFF8B
:1030400027E0DBB25FFA8CFC042912D0012833D1CF
:10305000012B2CD1012A31D1BCF1010F30D1022337
:1030600084F83E3084F83F3084F8423084F84330AE
:10307000D9E7012B1CD1BCF1010F1BD1022384F82D
:103080003F3084F84330CEE7012200212068FFF76B
:1030900036FF2268136843F001031360002006E046
:1030A000012204212068FFF72AFFF2E7012038BD42
:1030B0000120FCE71846FAE70120F8E71846F6E792
:1030C0001046F4E790F83C30012B2CD010B40123CB
:1030D00080F83C30022380F83D3003685A689C68D1
:1030E00022F0700C0A6842EA0C025A6003680F4A28
:1030F00093420AD0B3F1804F07D0A2F594329342A5
:1031000003D002F58062934204D124F080044A681F
:1031100014439C60012380F83D30002380F83C304C
:10312000184610BC70470220704700BF002C0140B9
:1031300090F83C30012B22D0012380F83C30CB6842
:1031400023F440738A68134323F480634A6813436B
:1031500023F400630A68134323F480530A6913437A
:1031600023F400534A69134323F48043CA69134389
:1031700002685364002380F83C30184670470220F0
:10318000704770477047026802F10C0353E8003F34
:1031900023F0C0030C3242E800310029F3D1202390
:1031A00080F841307047026802F10C0353E8003F99
:1031B00023F490730C3242E800310029F3D1026805
:1031C00002F1140353E8003F23F00103143242E8F4
:1031D00000310029F3D1036B012B05D0202380F8A7
:1031E0004230002303637047026802F10C0353E886
:1031F000003F23F010030C3242E800310029F3D1E4
:10320000ECE790F84130DBB2212B01D0022070476F
:103210008368B3F5805F17D0036A5A1C02621A787C
:1032200003685A60C38C9BB2013B9BB2C3844BB909
:103230000268D36823F08003D3600268D36843F048
:103240004003D360002070470369002BE4D1036A78
:103250001B880268C3F308035360036A02330362E6
:10326000E0E7000010B504460268136923F44053F8
:10327000C1680B43136183680269134342691A43AF
:103280000168CB6823F4B05323F00C031343CB60E5
:103290000268536923F4407381690B4353610268E8
:1032A000134B9A4220D0FFF76BFA024602EB8202E0
:1032B00002EB820263689B00B2FBF3F20D48A0FBB5
:1032C00002314909642303FB11231B013233A0FBA4
:1032D00003235B0903F0F00202EB011203F00F037A
:1032E000216813448B6010BDFFF75AFA0246DDE7F0
:1032F000003801401F85EB5160B310B5044690F8CB
:10330000413013B3242384F841302268D36823F476
:103310000053D3602046FFF7A5FF2268136923F40A
:10332000904313612268536923F02A035361226892
:10333000D36843F40053D36000206064202384F8F2
:10334000413084F84230606310BD80F84030FEF7B1
:103350000FFBD7E701207047704708B50168CA68BE
:1033600022F04002CA60202280F84120FFF7F4FFDB
:10337000002008BD7047704710B5446A23685A6939
:1033800094F84130DBB2212B10D023685A6902F047
:10339000400294F84230DBB2222B11D0636C43F030
:1033A000100363642046FFF7E6FF10BD02F08002C1
:1033B000002AEAD00023E3842046FFF7E4FEE4E796
:1033C000002AEBD00023E3852046FFF7ECFEE5E77B
:1033D00008B5406A0023C385C384FFF7CCFF08BD4E
:1033E000704790F84230DBB2222B69D18368B3F585
:1033F000805F4FD0826AB3F5805F04D0002B56D136
:103400000369002B53D103685B681370836A01332F
:103410008362C38D9BB2013B9BB2C385002B51D10C
:1034200000B583B00268D36823F02003D36002683C
:10343000D36823F48073D3600268536923F00103D7
:103440005361202380F8423000234363036B012B38
:1034500033D100230363026802F10C0353E8003FF9
:1034600023F010030C3242E800310029F3D1036845
:103470001A6812F0100F06D0002201921A68019209
:103480005B680193019B818DFFF7AAFF002003B0C9
:103490005DF804FB0269002AACD1826A03685B68AC
:1034A000C3F308031380836A02338362B1E70368BE
:1034B0005B6803F07F031370A8E7FDF721FFE5E7E2
:1034C000022070470020704730B583B00446026880
:1034D0001368D068516913F00F0505D113F0200F60
:1034E00002D010F0200F19D12DB111F0010119D126
:1034F00010F4907F16D1216B01297DD013F0800F3D
:1035000003D010F0800F40F0188113F0400F03D06B
:1035100010F0400F40F0158103B030BD2046FFF79A
:1035200060FFF9E713F0010F06D010F4807F03D09D
:10353000626C42F00102626413F0040F04D019B10E
:10354000626C42F00202626413F0020F04D019B1FF
:10355000626C42F00402626413F0080F07D010F0AE
:10356000200F00D119B1626C42F008026264626CF3
:10357000002AD1D013F0200F02D010F0200F29D153
:1035800023685B6903F04003626C12F0080F00D1FE
:1035900063B32046FFF707FE23685B6913F0400F13
:1035A00020D0226802F1140353E8003F23F04003C7
:1035B000143242E800310029F3D1E36B73B1634A5E
:1035C0005A63E06BFEF7D2FB0028A5D0E06B436B9B
:1035D0009847A1E72046FFF704FFD1E72046FFF711
:1035E000CAFE99E72046FFF7C6FE95E72046FFF79B
:1035F000C2FE002363648FE713F0100F3FF47EAF29
:1036000010F0100F3FF47AAF002301931368019379
:1036100053680193019B536913F0400F51D0E26B43
:1036200013685B689BB2002B3FF476AFA18D994283
:103630007FF672AFE3859369202B37D0226802F1C1
:103640000C0353E8003F23F480730C3242E800314E
:103650000029F3D1226802F1140353E8003F23F05C
:103660000103143242E800310029F3D1226802F14B
:10367000140353E8003F23F04003143242E80031C2
:103680000029F3D1202384F84230002323632268E9
:1036900002F10C0353E8003F23F010030C3242E820
:1036A00000310029F3D1E06BFEF73DFB0223636399
:1036B000A18DE38D9BB2C91A89B22046FFF790FE17
:1036C0002AE7A18DE38D9BB2C91A89B2E38D9BB223
:1036D000002B3FF421AF00293FF41EAF226802F116
:1036E0000C0353E8003F23F490730C3242E800309F
:1036F0000028F3D1226802F1140353E8003F23F0BD
:103700000103143242E800300028F3D1202384F86A
:10371000423000232363226802F10C0353E8003F88
:1037200023F010030C3242E800300028F3D10223CA
:1037300063632046FFF754FEEEE62046FFF761FD87
:10374000EAE62046FFF709FEE6E600BFD1330008AF
:1037500008B5406A01234363036B012B02D0FFF7D6
:1037600009FE08BD818D4908FFF73AFEF9E708B563
:103770000346406A1B681B6813F0200F2BD10023FF
:10378000C385026802F10C0353E8003F23F4807301
:103790000C3242E800310029F3D1026802F114032F
:1037A00053E8003F23F00103143242E800310029BE
:1037B000F3D1026802F1140353E8003F23F0400301
:1037C000143242E800310029F3D1202380F842303E
:1037D000036B012B07D000234363036B012B0FD036
:1037E000FDF78EFD08BD026802F10C0353E8003FAF
:1037F00023F010030C3242E800310029F3D1EAE74C
:10380000818DFFF7EDFDEDE730B583B0044613463B
:103810008162828500254564222280F84220C26BA5
:103820001F489062E26B1F48D062E26B1E48106333
:10383000E26B556320680A46011DE06BFEF738FA1B
:10384000019523681A6801925B680193019B2369C3
:103850005BB1226802F10C0353E8003F43F480732C
:103860000C3242E800310029F3D1226802F114033E
:1038700053E8003F43F00103143242E800310029CD
:10388000F3D1226802F1140353E8003F43F04003F0
:10389000143242E800310029F3D1002003B030BDDA
:1038A0006F370008513700087933000808B590F8E1
:1038B0004230DBB2202B08D149B10AB9012008BD42
:1038C00000230363FFF7A0FFF9E70220F7E70120D9
:1038D000F5E7000070B50D4E0D4D761BB61006D005
:1038E000002455F8043B01349847A642F9D1094E0B
:1038F000094D00F0D5F8761BB61006D0002455F817
:10390000043B01349847A642F9D170BDE83A00085B
:10391000E83A0008F03A0008E83A0008830730B5B2
:1039200048D0541E002A3FD00346CAB201E0013CF1
:103930003AD303F8012B9D07F9D1032C2DD9CDB231
:1039400045EA05250F2C45EA054536D9A4F11002B4
:1039500022F00F0C03F1200EE6444FEA121C03F193
:10396000100242E9045542E9025510327245F8D17D
:103970000CF1010214F00C0F03EB021204F00F0C17
:1039800013D0ACF1040323F003030433134442F8CF
:10399000045B9342FBD10CF003042CB1CAB21C446B
:1039A00003F8012B9C42FBD130BD64461346002C2A
:1039B000F4D1F9E703461446BFE71A46A446E0E708
:1039C000024B13B1024800F005B870470000000038
:1039D000E1390008002301461A46184600F01AB8DB
:1039E00038B5084B084D5B1B9C1007D0043B1D44A9
:1039F000013C55F804399847002CF9D1BDE838400E
:103A000000F054B8F43A0008F03A0008704700BFDC
:103A1000704700BF2DE9F047DFF87CA00646DAF8D2
:103A2000000098460F469146FFF7F0FF1B4B1B68BE
:103A3000D3F8484124B365681F2D26DC5EB96B1CA2
:103A40000235DAF80000636044F82570FFF7E0FF04
:103A50000020BDE8F087012304EB8501C1F88890C0
:103A6000D4F88821AB401A43022EC4F88821C1F84B
:103A70000881E4D1D4F88C211343C4F88C31DEE7FB
:103A800003F5A674C3F84841D5E7DAF80000FFF75C
:103A9000BFFF4FF0FF30DCE738040020E43A0008B5
:103AA000F8B500BFF8BC08BC9E467047F8B500BF2B
:083AB000F8BC08BC9E467047FB
:103AB80000000000000000000102030406070809D6
:103AC80000000000010203040203040506070809B8
:103AD8000A0B0C0D0E0F1010010200001000002040
:083AE800C13900083501000896
:043AF00011010008B8
:103AF40000127A0001000000100000000000000025
:103B040000000000FC02002064030020CC0300201D
:103B140000000000000000000000000000000000A1
:103B24000000000000000000000000000000000091
:103B34000000000000000000000000000000000081
:103B44000000000000000000000000000000000071
:103B54000000000000000000000000000000000061
:103B64000000000000000000000000000000000051
:103B74000000000000000000000000000000000041
:103B84000000000000000000000000000000000031
:103B94000000000000000000000000000000000021
:103BA4000000000000000000010000000000000010
:103BB4000E33CDAB34126DE6ECDE05000B000000D5
:103BC40000000000000000000000000000000000F1
:103BD40000000000000000000000000000000000E1
:103BE40000000000000000000000000000000000D1
:103BF40000000000000000000000000000000000C1
:0C3F24000000000000000000A0060020CB
:0400000508001A6174
:00000001FF
